:020000040800F2
:1000000000000220F1420008B5400008C34000088B
:10001000C9400008CF400008D5400008000000009B
:10002000000000000000000000000000DB400008AD
:10003000E940000800000000F74000080541000802
:100040004143000841430008414300084143000880
:100050004143000841430008414300084143000870
:100060004143000811410008414300084143000892
:100070004143000841430008414300084143000850
:100080004143000841430008414300084143000840
:100090004143000841430008414300084143000830
:1000A0004143000821410008414300084143000842
:1000B0004143000841430008414300084143000810
:1000C0004143000841430008414300084143000800
:1000D00041430008414300084143000841430008F0
:1000E000414300084143000800000000414300086C
:1000F00041430008414300084143000841430008D0
:1001000041430008414300084143000841430008BF
:1001100041430008414300084143000841430008AF
:10012000414300084143000841430008414300089F
:10013000414300084143000841430008414300088F
:1001400000000000000000000000000000000000AF
:10015000414300084143000841430008414300086F
:10016000414300084143000841430008414300085F
:1001700041430008414300084143000800000000DB
:10018000414300084143000841430008414300083F
:10019000414300084143000841430008414300082F
:1001A000414300084143000841430008414300081F
:1001B000414300084143000841430008414300080F
:1001C00041430008414300084143000841430008FF
:1001D00041430008414300084143000841430008EF
:1001E00041430008414300084143000841430008DF
:1001F00041430008414300084143000841430008CF
:1002000041430008414300084143000841430008BE
:1002100041430008414300084143000841430008AE
:10022000414300084143000841430008000000002A
:10023000414300084143000800000000414300081A
:10024000414300084143000841430008414300087E
:10025000414300084143000841430008414300086E
:10026000414300084143000841430008414300085E
:1002700041430008414300084143000800000000DA
:1002800041430008414300084143000800000000CA
:080290000000000041430008DA
:1002980010B5054C237833B9044B13B10448AFF3B8
:1002A80000800123237010BD100000200000000012
:1002B8009C43000808B5034B1BB103490348AFF33F
:1002C800008008BD00000000140000209C430008C6
:1002D80080B500AF032000F063F901F031F9014661
:1002E800134B9B691B0A03F00F03124AD35C03F0FC
:1002F8001F0321FA03F3104A13600F4B1A680C4BC3
:100308009B6903F00F030B49CB5C03F01F0322FA30
:1003180003F30A4A1360002000F012F80346002B8A
:1003280001D0012302E003F0A7FE0023184680BD98
:1003380000440258B4430008080000200C000020C4
:1003480080B582B000AF7860154B1B78002B01D1C7
:10035800012321E0134B1A68114B1B7819464FF4FF
:100368007A73B3FBF1F3B2FBF3F3184600F04BF9E1
:100378000346002B01D001230EE07B680F2B0AD81F
:10038800002279684FF0FF3000F015F9064A7B68C3
:100398001360002300E0012318460837BD4680BDDE
:1003A80004000020080000200000002080B400AFF6
:1003B800064B1B781A46064B1B681344044A136005
:1003C80000BFBD465DF8047B704700BF04000020F5
:1003D8002C00002080B400AF034B1B681846BD46B4
:1003E8005DF8047B704700BF2C00002080B400AF8C
:1003F800034B1B681B0C1846BD465DF8047B704711
:100408000010005C80B485B000AF78607B6803F0B2
:100418000703FB600B4BDB68BB60BA684FF6FF0352
:100428001340BB60FB681A02BB681A43064B1343B0
:10043800BB60044ABB68D36000BF1437BD465DF893
:10044800047B704700ED00E00000FA0580B400AFBF
:10045800044BDB681B0A03F007031846BD465DF82A
:10046800047B704700ED00E080B483B000AF034622
:10047800FB80B7F90630002B0BDB0949B7F90630CA
:100488005B09FA8802F01F02012000FA02F241F823
:10049800232000BF0C37BD465DF8047B704700BFC2
:1004A80000E100E080B483B000AF03463960FB8010
:1004B800B7F90630002B0ADB0D49B7F906303A6860
:1004C800D2B21201D2B20B4483F800230AE00949E0
:1004D800FB8803F00F03043B3A68D2B21201D2B290
:1004E8000B441A7600BF0C37BD465DF8047B704795
:1004F80000E100E000ED00E080B489B000AFF860F2
:10050800B9607A60FB6803F00703FB61FB69C3F11C
:100518000703042B28BF0423BB61FB690433062BA4
:1005280002D9FB69033B00E000237B610122BB6920
:1005380002FA03F35A1EBB681A407B699A400121EC
:100548007B6901FA03F3591E7B680B401343184675
:100558002437BD465DF8047B7047000080B582B043
:1005680000AF78607B68013BB3F1807F01D3012342
:100578000FE00A4A7B68013B53600F214FF0FF30C0
:10058800FFF790FF054B00229A60044B07221A6080
:10059800002318460837BD4680BD00BF10E000E0C4
:1005A80080B582B000AF78607868FFF72BFF00BF96
:1005B8000837BD4680BD80B586B000AF0346B96038
:1005C8007A60FB81FFF742FF78617A68B9687869D9
:1005D800FFF792FF0246B7F90E3011461846FFF7AB
:1005E80061FF00BF1837BD4680BD80B582B000AF3F
:1005F8000346FB80B7F906301846FFF735FF00BF02
:100608000837BD4680BD80B582B000AF7860786895
:10061800FFF7A4FF034618460837BD4680BD000013
:1006280080B489B000AF786039600023FB61894BE2
:100638007B6194E13B681A680121FB6901FA03F3C5
:1006480013403B613B69002B00F086813B685B6887
:10065800022B03D03B685B68122B23D1FB69DA08B5
:100668007B68083253F82230BB61FB6903F007034B
:100678009B000F2202FA03F3DB43BA691340BB6104
:100688003B681A69FB6903F007039B0002FA03F34E
:10069800BA691343BB61FB69DA087B680832B96938
:1006A80043F822107B681B68BB61FB695B0003226F
:1006B80002FA03F3DB43BA691340BB613B685B682A
:1006C80003F00302FB695B0002FA03F3BA69134300
:1006D800BB617B68BA691A603B685B68012B0BD009
:1006E8003B685B68022B07D03B685B68112B03D023
:1006F8003B685B68122B30D17B689B68BB61FB69E8
:100708005B00032202FA03F3DB43BA691340BB61BF
:100718003B68DA68FB695B0002FA03F3BA691343C2
:10072800BB617B68BA699A607B685B68BB610122C0
:10073800FB6902FA03F3DB43BA691340BB613B6808
:100748005B681B0903F00102FB6902FA03F3BA694B
:100758001343BB617B68BA695A607B68DB68BB611D
:10076800FB695B00032202FA03F3DB43BA69134017
:10077800BB613B689A68FB695B0002FA03F3BA69DC
:100788001343BB617B68BA69DA603B685B6803F056
:100798008053002B00F0E0802F4A2F4BD3F8F43021
:1007A80043F00203C2F8F4302B4BD3F8F43003F0D3
:1007B8000203FB60FB68294AFB699B08023352F875
:1007C8002330BB61FB6903F003039B000F2202FA8D
:1007D80003F3DB43BA691340BB617B68204A934249
:1007E80052D07B681F4A934231D07B681E4A93429D
:1007F8002BD07B681D4A934225D07B681C4A9342C4
:100808001FD07B681B4A934219D07B681A4A9342CF
:1008180013D07B68194A93420DD07B68184A9342DB
:1008280007D07B68174A934201D109232DE00A2398
:100838002BE0082329E0072327E0062325E00523EA
:1008480023E0042321E003231FE002231DE001230A
:100858001BE000BF80000058004402580004005804
:10086800000002580004025800080258000C025800
:10087800001002580014025800180258001C0258B0
:1008880000200258002402580023FA6902F00302EB
:1008980092009340BA691343BB613849FB699B08CE
:1008A8000233BA6941F823207B691B68BB613B6945
:1008B800DB43BA691340BB613B685B6803F4803370
:1008C800002B03D0BA693B691343BB617B69BA69E2
:1008D8001A607B695B68BB613B69DB43BA6913409B
:1008E800BB613B685B6803F40033002B03D0BA6933
:1008F8003B691343BB617B69BA695A604FF0B043E7
:100908001B68BB613B69DB43BA691340BB613B6849
:100918005B6803F48013002B03D0BA693B69134367
:10092800BB614FF0B042BB6913604FF0B0435B68E6
:10093800BB613B69DB43BA691340BB613B685B68D9
:1009480003F40013002B03D0BA693B691343BB615E
:100958004FF0B042BB695360FB690133FB613B68F0
:100968001A68FB6922FA03F3002B7FF463AE00BF19
:100978002437BD465DF8047B704700BF000400586B
:1009880080B483B000AF78600B467B8013467B70E1
:100998007B78002B03D07A887B689A6103E07B8898
:1009A8001A047B689A6100BF0C37BD465DF8047B6A
:1009B800704780B483B000AF78600B467B807B685B
:1009C8005A697B881A407B889A4204D17B881A042A
:1009D8007B689A6102E07A887B689A6100BF0C376D
:1009E800BD465DF8047B704780B582B000AF034612
:1009F800FB80084B9A68FB881340002B06D0054AF9
:100A0800FB889360FB88184603F0F8F800BF0837A6
:100A1800BD4680BD8000005880B584B000AF7860C6
:100A2800184BDB6803F00403042B08D0154BDB6874
:100A380003F007027B689A4201D001231DE01149A7
:100A4800104BDB6823F007027B681343CB60FFF78A
:100A5800C1FCF86009E0FFF7BDFC0246FB68D31A49
:100A6800B3F57A7F01D9032307E0064B5B6803F4EB
:100A78000053B3F5005FEED1002318461037BD468A
:100A880080BD00BF0048025880B58AB000AF7860CA
:100A98007B68002B01D10123A4E37B681B6803F06A
:100AA8000103002B00F087809A4B1B6903F0380381
:100AB8007B62984B9B6A3B627B6A102B07D07B6AF0
:100AC800182B10D13B6A03F00303022B0BD1914B77
:100AD8001B6803F40033002B6CD07B685B68002B29
:100AE80068D101237EE37B685B68B3F5803F06D15C
:100AF800884A884B1B6843F4803313602EE07B6878
:100B08005B68002B0CD1834A824B1B6823F480332B
:100B18001360804A7F4B1B6823F4802313601DE019
:100B28007B685B68B3F5A02F0CD17A4A794B1B68B8
:100B380043F480231360774A764B1B6843F4803371
:100B480013600BE0734A734B1B6823F48033136004
:100B5800704A704B1B6823F4802313607B685B68C2
:100B6800002B13D0FFF736FCF86108E0FFF732FCE2
:100B78000246FB69D31A642B01D9032332E3654B80
:100B88001B6803F40033002BF0D014E0FFF722FCBD
:100B9800F86108E0FFF71EFC0246FB69D31A642BD4
:100BA80001D903231EE35B4B1B6803F40033002BBE
:100BB800F0D100E000BF7B681B6803F00203002B44
:100BC80000F0B080534B1B6903F03803BB61514BF5
:100BD8009B6A7B61BB69002B07D0BB69182B49D185
:100BE8007B6903F00303002B44D14A4B1B6803F0D5
:100BF8000403002B05D07B68DB68002B01D101239F
:100C0800F0E24449434B1B6823F019027B68DB6818
:100C180013430B60FFF7DEFBF86108E0FFF7DAFB30
:100C28000246FB69D31A022B01D90323DAE2394BB6
:100C38001B6803F00403002BF0D0FFF7D7FB024634
:100C480041F203039A420AD83249324B5B6823F4D3
:100C58007C327B681B691B0313434B6062E02D49A0
:100C68002C4B5B6823F0FE427B681B691B06134311
:100C78004B6057E07B68DB68002B38D02549254B53
:100C88001B6823F019027B68DB6813430B60FFF7CE
:100C9800A1FBF86108E0FFF79DFB0246FB69D31A48
:100CA800022B01D903239DE21A4B1B6803F00403AE
:100CB800002BF0D0FFF79AFB024641F203039A4259
:100CC8000AD81449134B5B6823F47C327B681B6990
:100CD8001B0313434B6025E00E490E4B5B6823F062
:100CE800FE427B681B691B0613434B601AE0094AE6
:100CF800084B1B6823F001031360FFF76BFBF861D7
:100D08000AE0FFF767FB0246FB69D31A022B03D9F7
:100D1800032367E200440258A04B1B6803F0040356
:100D2800002BEED17B681B6803F01003002B00F04A
:100D38008F809A4B1B6903F038033B61974B9B6A82
:100D4800FB603B69082B07D03B69182B2DD1FB684A
:100D580003F00303012B28D1904B1B6803F4807325
:100D6800002B05D07B68DB69802B01D0012339E299
:100D7800FFF73CFB024641F203039A420AD887492F
:100D8800864B5B6823F0F8427B681B6A9B0613431B
:100D98004B605DE08149814BDB6823F07C527B68C6
:100DA8001B6A1B061343CB6052E07B68DB69002B90
:100DB80035D07A4A794B1B6843F080031360FFF7FC
:100DC80009FBF86108E0FFF705FB0246FB69D31A47
:100DD800022B01D9032305E2704B1B6803F48073CF
:100DE800002BF0D0FFF702FB024641F203039A42C0
:100DF8000AD86A49694B5B6823F0F8427B681B6A2A
:100E08009B0613434B6023E06449644BDB6823F083
:100E18007C527B681B6A1B061343CB6018E05F4A51
:100E28005E4B1B6823F080031360FFF7D3FAF86169
:100E380008E0FFF7CFFA0246FB69D31A022B01D963
:100E48000323CFE1554B1B6803F48073002BF0D1CB
:100E58007B681B6803F00803002B36D07B685B694E
:100E6800002B19D04D4A4D4B5B6F43F0010353677C
:100E7800FFF7B0FAF86108E0FFF7ACFA0246FB6941
:100E8800D31A022B01D90323ACE1444B5B6F03F067
:100E98000203002BF0D018E0404A404B5B6F23F070
:100EA80001035367FFF796FAF86108E0FFF792FA33
:100EB8000246FB69D31A022B01D9032392E1374B6F
:100EC8005B6F03F00203002BF0D17B681B6803F013
:100ED8002003002B36D07B689B69002B19D02F4A42
:100EE8002E4B1B6843F480531360FFF773FAF861C5
:100EF80008E0FFF76FFA0246FB69D31A022B01D903
:100F080003236FE1254B1B6803F40053002BF0D03B
:100F180018E0224A214B1B6823F480531360FFF723
:100F280059FAF86108E0FFF755FA0246FB69D31A47
:100F3800022B01D9032355E1184B1B6803F4005316
:100F4800002BF0D17B681B6803F00403002B00F032
:100F58008680134A124B1B6843F480731360FFF7B3
:100F680039FAF86108E0FFF735FA0246FB69D31A47
:100F7800642B01D9032335E1094B1B6803F4807303
:100F8800002BF0D07B689B68012B0BD1034A034BE5
:100F98001B6F43F00103136732E000BF004402589F
:100FA800004802587B689B68002B0CD18F4A8F4BF6
:100FB8001B6F23F0010313678C4A8C4B1B6F23F0C4
:100FC800040313671CE07B689B68052B0CD1874AD8
:100FD800864B1B6F43F004031367844A834B1B6FD4
:100FE80043F0010313670BE0804A804B1B6F23F02B
:100FF800010313677D4A7D4B1B6F23F004031367BE
:101008007B689B68002B15D0FFF7E4F9F8610AE0CC
:10101800FFF7E0F90246FB69D31A41F2883293429E
:1010280001D90323DEE0714B1B6F03F00203002B91
:10103800EED014E0FFF7CEF9F8610AE0FFF7CAF93D
:101048000246FB69D31A41F28832934201D903233D
:10105800C8E0664B1B6F03F00203002BEED17B68E0
:101068005B6A002B00F0BD80604B1B6903F03803FE
:10107800182B00F0B4807B685B6A022B40F09580E7
:101088005A4A5A4B1B6823F080731360FFF7A2F982
:10109800F86108E0FFF79EF90246FB69D31A022BB4
:1010A80001D903239EE0514B1B6803F00073002B0A
:1010B800F0D14E484D4B9A6A4D4B13407A68916A6D
:1010C8007A68D26A12010A431343836247497B68EC
:1010D8001B6B013BC3F308027B685B6B013B5B0244
:1010E8009BB21A437B689B6B013B1B0403F4FE0312
:1010F8001A437B68DB6B013B1B0603F0FE4313437B
:101108000B633A4A394BDB6A23F00103D362374950
:10111800364B5A6B374B13407A68926CD2001343A4
:101128004B633249314BDB6A23F00C027B681B6C42
:101138001343CB622D492D4BDB6A23F002027B68F7
:101148005B6C1343CB62294A284BDB6A43F4803338
:10115800D362264A254BDB6A43F40033D362234A21
:10116800224BDB6A43F48023D362204A1F4BDB6A9D
:1011780043F00103D3621D4A1C4B1B6843F0807384
:101188001360FFF727F9F86108E0FFF723F9024633
:10119800FB69D31A022B01D9032323E0134B1B68E5
:1011A80003F00073002BF0D01BE0104A0F4B1B68B4
:1011B80023F080731360FFF70DF9F86108E0FFF77B
:1011C80009F90246FB69D31A022B01D9032309E066
:1011D800064B1B6803F00073002BF0D101E00123DC
:1011E80000E0002318462837BD4680BD0044025859
:1011F8000CFCFFFF0700FFFF80B584B000AF7860EC
:1012080039607B68002B01D101238DE18A4B1B6873
:1012180003F00F023B689A4210D28749864B1B683D
:1012280023F00F023B6813430B60834B1B6803F0EA
:101238000F023B689A4201D0012375E17B681B6865
:1012480003F00403002B10D07B681A697B4B9B6961
:1012580003F070039A4208D97849784B9B6923F0C8
:1012680070027B681B6913438B617B681B6803F002
:101278000803002B10D07B685A69704BDB6903F0B8
:1012880070039A4208D96D496C4BDB6923F07002F0
:101298007B685B691343CB617B681B6803F01003B1
:1012A800002B10D07B689A69644BDB6903F4E06318
:1012B8009A4208D96149614BDB6923F4E0627B6893
:1012C8009B691343CB617B681B6803F02003002BE9
:1012D80010D07B68DA69594B1B6A03F070039A4295
:1012E80008D95649554B1B6A23F070027B68DB69A5
:1012F80013430B627B681B6803F00203002B10D0BA
:101308007B68DA684D4B9B6903F00F039A4208D952
:101318004A494A4B9B6923F00F027B68DB681343F9
:101328008B617B681B6803F00103002B55D0434990
:10133800424B9B6923F470627B689B6813438B6103
:101348007B685B68022B07D13C4B1B6803F40033B6
:10135800002B21D10123E7E07B685B68032B07D1D1
:10136800364B1B6803F00073002B15D10123DBE01B
:101378007B685B68012B07D1304B1B6803F48073D3
:10138800002B09D10123CFE02C4B1B6803F0040389
:10139800002B01D10123C7E02849284B1B6923F002
:1013A80007027B685B6813430B61FFF713F8F8606B
:1013B8000AE0FFF70FF80246FB68D31A41F28832B9
:1013C800934201D90323AFE01C4B1B6903F0380299
:1013D8007B685B68DB009A42EBD17B681B6803F093
:1013E8000203002B10D07B68DA68144B9B6903F06A
:1013F8000F039A4208D21149104B9B6923F00F0240
:101408007B68DB6813438B610B4B1B6803F00F028F
:101418003B689A4214D90849074B1B6823F00F020E
:101428003B6813430B60044B1B6803F00F023B68D7
:101438009A4205D0012377E0002000520044025868
:101448007B681B6803F00403002B10D07B681A69C3
:10145800374B9B6903F070039A4208D23449344BE6
:101468009B6923F070027B681B6913438B617B685F
:101478001B6803F00803002B10D07B685A692C4BBB
:10148800DB6903F070039A4208D22949284BDB69CB
:1014980023F070027B685B691343CB617B681B6830
:1014A80003F01003002B10D07B689A69204BDB698E
:1014B80003F4E0639A4208D21D491D4BDB6923F40B
:1014C800E0627B689B691343CB617B681B6803F010
:1014D8002003002B10D07B68DA69154B1B6A03F0D8
:1014E80070039A4208D21249114B1B6A23F070020A
:1014F8007B68DB6913430B6200F022F801460C4B52
:101508009B691B0A03F00F030A4AD35C03F01F030D
:1015180021FA03F3084A1360084B1B681846FEF7C4
:101528000FFF0346FB72FB7A18461037BD4680BD95
:1015380000440258B44300080800002000000020BE
:1015480080B489B000AFAF4B1B6903F03803182B88
:1015580000F24E8101A252F823F000BFC91500081D
:10156800F9170008F9170008F9170008F917000813
:10157800F9170008F9170008F9170008EF1500080F
:10158800F9170008F9170008F9170008F9170008F3
:10159800F9170008F9170008F9170008F5150008E9
:1015A800F9170008F9170008F9170008F9170008D3
:1015B800F9170008F9170008F9170008FB150008C3
:1015C800904B1B6803F02003002B09D08D4B1B6840
:1015D800DB0803F003038C4A22FA03F3BB610AE138
:1015E800894BBB6107E1894BBB6104E1884BBB6157
:1015F80001E1844B9B6A03F003037B61814B9B6A87
:101608001B0903F03F033B617E4BDB6A03F00103D8
:10161800FB607C4B5B6BDB08C3F30C03FA6802FBD3
:1016280003F307EE903AF8EE677AC7ED027A3B6962
:10163800002B00F0DA807B69012B5AD0012B02D3F2
:10164800022B78D099E06F4B1B6803F02003002B26
:101658002DD06C4B1B68DB0803F003036A4A22FA9F
:1016680003F37B607B6807EE903AF8EE676A3B69A4
:1016780007EE903AF8EE677A86EEA77A614B1B6B15
:10168800C3F3080307EE903AF8EE676A97ED026A2B
:10169800DFED605AC6EE257A76EEA77AF7EE006A95
:1016A80077EEA67A67EE277AC7ED077A87E03B6977
:1016B80007EE903AF8EE677ADFED576A86EEA77A7A
:1016C800504B1B6BC3F3080307EE903AF8EE676ABA
:1016D80097ED026ADFED4F5AC6EE257A76EEA77AC5
:1016E800F7EE006A77EEA67A67EE277AC7ED077AF3
:1016F80065E03B6907EE903AF8EE677ADFED476AF6
:1017080086EEA77A3F4B1B6BC3F3080307EE903AAC
:10171800F8EE676A97ED026ADFED3E5AC6EE257A63
:1017280076EEA77AF7EE006A77EEA67A67EE277A62
:10173800C7ED077A43E03B6907EE903AF8EE677A1F
:10174800DFED376A86EEA77A2E4B1B6BC3F30803CF
:1017580007EE903AF8EE676A97ED026ADFED2D5AC8
:10176800C6EE257A76EEA77AF7EE006A77EEA67AC5
:1017780067EE277AC7ED077A21E03B6907EE903AD2
:10178800F8EE677ADFED256A86EEA77A1D4B1B6BAC
:10179800C3F3080307EE903AF8EE676A97ED026A1A
:1017A800DFED1C5AC6EE257A76EEA77AF7EE006AC8
:1017B80077EEA67A67EE277AC7ED077A00BF114B56
:1017C8001B6B5B0A03F07F0301333B603B6807EE4A
:1017D800903AB8EE677AD7ED076AC6EE877AFCEEDC
:1017E800E77A17EE903ABB6105E00023BB6102E09F
:1017F800064BBB6100BFBB6918462437BD465DF880
:10180800047B7047004402580090D00300093D0053
:1018180000127A00000000460024744C0024744A28
:101828000024F44A80B586B000AF78600023FB75C9
:101838000023BB757B681B6803F00063002B3DD059
:101848007B685B6EB3F5801F13D0B3F5801F02D899
:10185800002B07D01FE0B3F5001F13D0B3F5401FCE
:101868001CD018E0AF4AAF4BDB6A43F40033D362B5
:1018780015E07B6804330221184600F0C3FE0346D6
:10188800FB750CE07B6824330221184600F06CFFDE
:101898000346FB7503E00123FB7500E000BFFB7DF9
:1018A800002B09D19F499F4B1B6D23F440127B6885
:1018B8005B6E13430B6501E0FB7DBB757B681B68A2
:1018C80003F48073002B3DD07B685B6D042B26D816
:1018D80001A252F823F000BFF51800080319000808
:1018E800151900082D1900082D1900088D4A8D4B6F
:1018F800DB6A43F40033D36215E07B6804330021CC
:10190800184600F07FFE0346FB750CE07B68243325
:101918000021184600F028FF0346FB7503E0012369
:10192800FB7500E000BFFB7D002B09D17D497D4B95
:101938001B6D23F007027B685B6D13430B6501E0A9
:10194800FB7DBB757B681B6803F40073002B3ED0DE
:101958007B689B6D802B1CD0802B04D8002B08D073
:10196800402B0DD01EE0C02B1FD0B3F5807F1ED0BA
:1019780018E06C4A6B4BDB6A43F40033D36217E020
:101988007B6804330021184600F03CFE0346FB75D3
:101998000EE07B6824330021184600F0E5FE03467C
:1019A800FB7505E00123FB7502E000BF00E000BF06
:1019B800FB7D002B09D15B495A4B1B6D23F4E07268
:1019C8007B689B6D13430B6501E0FB7DBB757B68F2
:1019D8001B6803F48063002B44D07B68D3F8A430E1
:1019E800B3F5800F1FD0B3F5800F05D8002B0AD0B0
:1019F800B3F5001F0ED01FE0B3F5C00F1FD0B3F52D
:101A0800000F1ED018E0474A464BDB6A43F4003308
:101A1800D36217E07B6804330021184600F0F2FD1A
:101A28000346FB750EE07B6824330021184600F05E
:101A38009BFE0346FB7505E00123FB7502E000BF32
:101A480000E000BFFB7D002B0AD13649354B9B6D6A
:101A580023F460027B68D3F8A43013438B6501E05C
:101A6800FB7DBB757B681B6803F40063002B44D0C7
:101A78007B68D3F8A830B3F1007F1FD0B3F1007FA3
:101A880005D8002B0AD0B3F1807F0ED01FE0B3F148
:101A9800407F1FD0B3F1806F1ED018E0214A214B40
:101AA800DB6A43F40033D36217E07B680433002118
:101AB800184600F0A7FD0346FB750EE07B6824334B
:101AC8000021184600F050FE0346FB7505E001238F
:101AD800FB7502E000BF00E000BFFB7D002B0AD1D0
:101AE8001049104B9B6D23F0E0627B68D3F8A83057
:101AF80013438B6501E0FB7DBB757B681B6803F0B6
:101B08000073002B35D07B689B6C102B0CD0102BEE
:101B180002D8002B1BD017E0202B0CD0302B18D06C
:101B280012E000BF00440258AF4AAF4BDB6A43F4EF
:101B38000033D3620EE07B6804330221184600F0BC
:101B480061FD0346FB7505E00123FB7502E000BF5C
:101B580000E000BFFB7D002B09D1A349A24BDB6C41
:101B680023F030027B689B6C1343CB6401E0FB7D60
:101B7800BB757B681B6803F48053002B42D07B68DD
:101B8800DB6DB3F5005F1FD0B3F5005F05D8002B00
:101B98000AD0B3F5805F0ED01FE0B3F5405F1FD0C9
:101BA800B3F5804F1ED018E08F4A8F4BDB6A43F4A1
:101BB8000033D36217E07B6804330021184600F035
:101BC80021FD0346FB750EE07B682433002118468F
:101BD80000F0CAFD0346FB7505E00123FB7502E032
:101BE80000BF00E000BFFB7D002B09D17E497E4B82
:101BF8001B6D23F4E0427B68DB6D13430B6501E04A
:101C0800FB7DBB757B681B6803F40053002B42D037
:101C18007B681B6EB3F5003F1BD0B3F5003F05D8BA
:101C2800002B22D0B3F5803F0AD01BE0B3F5802FFC
:101C38001DD0B3F5A02F1CD0B3F5403F1BD011E049
:101C48007B6804330121184600F0DCFC0346FB7571
:101C580012E07B6824330121184600F085FD034615
:101C6800FB7509E00123FB7506E000BF04E000BF37
:101C780002E000BF00E000BFFB7D002B09D15A49FC
:101C8800594B1B6D23F4E0227B681B6E13430B65D5
:101C980001E0FB7DBB757B681B6803F48043002B68
:101CA80044D07B68D3F8AC30B3F1005F1BD0B3F1FC
:101CB800005F05D8002B22D0B3F1805F0AD01BE06B
:101CC800B3F1804F1DD0B3F1A04F1CD0B3F1405FEA
:101CD8001BD011E07B6804330121184600F092FC08
:101CE8000346FB7512E07B6824330121184600F097
:101CF8003BFD0346FB7509E00123FB7506E000BFC9
:101D080004E000BF02E000BF00E000BFFB7D002B45
:101D18000AD13549344B9B6D23F0E0427B68D3F8F8
:101D2800AC3013438B6501E0FB7DBB757B681B689A
:101D380003F40043002B2DD07B68DB6EB3F1805F8A
:101D480005D0B3F1005F09D0002B13D00FE0264A6D
:101D5800254BDB6A43F40033D3620CE07B68043321
:101D68000121184600F04EFC0346FB7503E00123F1
:101D7800FB7500E000BFFB7D002B09D11A491A4B07
:101D88001B6D23F040527B68DB6E13430B6501E04B
:101D9800FB7DBB757B681B6803F08073002B35D017
:101DA8007B685B6C032B1BD801A252F823F000BFA1
:101DB800F51D0008C91D0008D71D0008F51D0008FD
:101DC800094A094BDB6A43F40033D3620FE07B68AE
:101DD80004330221184600F015FC0346FB7506E0A3
:101DE8000123FB7503E000BF0044025800BFFB7DE0
:101DF800002B09D1BA49BA4BDB6C23F003027B688C
:101E08005B6C1343CB6401E0FB7DBB757B681B688F
:101E180003F48003002B00F08680B24AB14B1B68A4
:101E280043F480731360FEF7D5FA386109E0FEF7D2
:101E3800D1FA02463B69D31A642B02D90323FB75F6
:101E480005E0A84B1B6803F48073002BEFD0FB7DE3
:101E5800002B66D1A24B1A6F7B68D3F8B030534081
:101E680003F44073002B13D09D4B1B6F23F4407376
:101E7800FB609B4A9A4B1B6F43F480331367984A65
:101E8800974B1B6F23F480331367954AFB681367DE
:101E98007B68D3F8B030B3F5807F15D1FEF79AFA96
:101EA80038610BE0FEF796FA02463B69D31A41F215
:101EB8008832934202D90323FB7505E0884B1B6FD8
:101EC80003F00203002BEDD0FB7D002B26D17B68AD
:101ED800D3F8B03003F44073B3F5407F0DD1804898
:101EE8007F4B1B6923F47C527B68D3F8B030190907
:101EF8007D4B0B401343036105E0794A784B1B691E
:101F080023F47C5313617649754B1A6F7B68D3F8B9
:101F1800B030C3F30B0313430B6704E0FB7DBB75C1
:101F280001E0FB7DBB757B681B6803F00103002B98
:101F38007DD07B689B6F282B66D801A252F823F0CE
:101F4800172000081120000811200008112000089F
:101F58001120000811200008112000081120000895
:101F6800ED1F0008112000081120000811200008AA
:101F78001120000811200008112000081120000875
:101F8800FF1F000811200008112000081120000878
:101F98001120000811200008112000081120000855
:101FA800172000081120000811200008112000083F
:101FB8001120000811200008112000081120000835
:101FC800172000081120000811200008112000081F
:101FD8001120000811200008112000081120000815
:101FE800172000087B6804330121184600F00AFB1B
:101FF8000346FB750CE07B6824330121184600F08A
:10200800B3FB0346FB7503E00123FB7500E000BF4B
:10201800FB7D002B09D13249314B5B6D23F038022F
:102028007B689B6F13434B6501E0FB7DBB757B6849
:102038001B6803F00203002B37D07B685B6F052B0E
:1020480020D801A252F823F0932000086920000844
:102058007B200008932000089320000893200008A4
:102068007B6804330121184600F0CCFA0346FB755F
:102078000CE07B6824330121184600F075FB034609
:10208800FB7503E00123FB7500E000BFFB7D002B1F
:1020980009D11349124B5B6D23F007027B685B6F14
:1020A80013434B6501E0FB7DBB757B681B6803F040
:1020B8000403002B40D07B68D3F89030052B27D839
:1020C80001A252F823F000BF1F210008F5200008E4
:1020D800072100081F2100081F2100081F210008F0
:1020E8000044025800480258CFFFFF007B680433C1
:1020F8000121184600F086FA0346FB750CE07B6860
:1021080024330121184600F02FFB0346FB7503E03A
:102118000123FB7500E000BFFB7D002B0AD1B3490A
:10212800B24B9B6D23F007027B68D3F890301343C2
:102138008B6501E0FB7DBB757B681B6803F02003A2
:10214800002B44D07B68D3F88C30B3F1005F1BD0F0
:10215800B3F1005F05D8002B22D0B3F1805F0AD01D
:102168001BE0B3F1804F1DD0B3F1A04F1CD0B3F1E9
:10217800405F1BD011E07B6804330021184600F053
:1021880041FA0346FB7512E07B68243302211846A6
:1021980000F0EAFA0346FB7509E00123FB7506E047
:1021A80000BF04E000BF02E000BF00E000BFFB7D0D
:1021B800002B0AD18D498D4B5B6D23F0E0427B6883
:1021C800D3F88C3013434B6501E0FB7DBB757B680E
:1021D8001B6803F04003002B44D07B68D3F8983089
:1021E800B3F5006F1BD0B3F5006F05D8002B22D0D4
:1021F800B3F5806F0AD01BE0B3F5805F1DD0B3F54F
:10220800A05F1CD0B3F5406F1BD011E07B6804338E
:102218000021184600F0F6F90346FB7512E07B68CA
:1022280024330221184600F09FFA0346FB7509E0A3
:102238000123FB7506E000BF04E000BF02E000BF19
:1022480000E000BFFB7D002B0AD16849674B9B6DFE
:1022580023F4E0527B68D3F8983013438B6501E090
:10226800FB7DBB757B681B6803F08003002B44D0A3
:102278007B68D3F89C30B3F5804F1BD0B3F5804F03
:1022880005D8002B22D0B3F5005F0AD01BE0B3F5C8
:10229800004F1DD0B3F5204F1CD0B3F5C04F1BD055
:1022A80011E07B6804330021184600F0ABF90346BF
:1022B800FB7512E07B6824330221184600F054FABB
:1022C8000346FB7509E00123FB7506E000BF04E047
:1022D80000BF02E000BF00E000BFFB7D002B0AD179
:1022E8004249424B9B6D23F460427B68D3F89C3093
:1022F80013438B6501E0FB7DBB757B681B6803F0AE
:102308000803002B1BD07B68D3F88030B3F5805FBF
:102318000BD17B6824330221184600F025FA0346C6
:10232800002B0CD00123BB7509E030492F4B5B6DA6
:1023380023F440527B68D3F8803013434B657B68A5
:102348001B6803F01003002B1BD07B68D3F8943074
:10235800B3F5807F0BD17B6824330221184600F047
:1023680003FA0346002B0CD00123BB7509E01F4973
:102378001E4B9B6D23F440727B68D3F89430134353
:102388008B657B681B6803F40023002B32D07B68C5
:10239800D3F8A030B3F5803F0DD0B3F5003F16D089
:1023A800002B11D17B6804330021184600F02AF96C
:1023B8000346FB750CE07B6824330221184600F0C5
:1023C800D3F90346FB7503E00123FB7500E000BF6A
:1023D800FB7D002B0CD10549044B9B6D23F4403247
:1023E8007B68D3F8A03013438B6503E000440258A0
:1023F800FB7DBB757B681B6803F48023002B2FD003
:102408007B68D3F88430B3F5001F0CD0B3F5401FB8
:1024180015D0B3F5801F0FD1794A794BDB6A43F4A5
:102428000033D3620CE07B6824330121184600F0A6
:102438009BF90346FB7503E00123FB7500E000BF31
:10244800FB7D002B0AD16E496D4B5B6D23F4401266
:102458007B68D3F8843013434B6501E0FB7DBB7583
:102468007B681B6803F48033002B29D07B68DB6C06
:10247800002B03D0B3F5803F07D00FE0604A604BD4
:10248800DB6A43F40033D3620BE07B680433022138
:10249800184600F0B7F80346FB7502E00123FB7508
:1024A80000BFFB7D002B09D15549554BDB6C23F44C
:1024B80080327B68DB6C1343CB6401E0FB7DBB752A
:1024C8007B681B6803F00053002B0AD07B68243319
:1024D8000221184600F048F90346002B01D00123D9
:1024E800BB757B681B6803F40033002B2FD07B6817
:1024F800DB6FB3F5807F0CD0B3F5807F02D8002B5B
:1025080011D00DE0B3F5007F0FD0B3F5407F0ED0AA
:1025180006E03B4A3A4BDB6A43F40033D36207E0F8
:102528000123FB7504E000BF02E000BF00E000BF2C
:10253800FB7D002B09D13249314B5B6D23F440728E
:102548007B68DB6F13434B6501E0FB7DBB757B68E4
:102558001B6803F48013002B08D02949284B1B6DF6
:1025680023F000427B681B6F13430B657B681B6875
:1025780003F08053002B09D02149214B1B6923F418
:1025880080427B68D3F8B43013430B617B681B68C7
:1025980003F40013002B08D01949194B1B6D23F0C5
:1025A80080727B689B6E13430B657B681B6803F026
:1025B8008043002B0DD0124A114B1B6923F40043B2
:1025C80013610F490E4B1A697B68D3F8B83013436F
:1025D8000B617B681B68002B08DA0949084BDB6C28
:1025E80023F040527B681B6D1343CB64BB7D002BEB
:1025F80001D1002300E0012318461837BD4680BDED
:102608000044025880B584B000AF78603960002378
:10261800FB73534B9B6A03F00303032B01D1012384
:1026280099E04F4A4E4B1B6823F080631360FDF717
:10263800D1FEB86008E0FDF7CDFE0246BB68D31AAC
:10264800022B01D9032386E0454B1B6803F0006386
:10265800002BF0D14249424B9B6A23F47C327B68C1
:102668001B681B0313438B623D497B685B68013B16
:10267800C3F308027B689B68013B5B029BB21A4369
:102688007B68DB68013B1B0403F4FE031A437B6889
:102698001B69013B1B0603F0FE4313438B63304960
:1026A8002F4BDB6A23F0C0027B685B691343CB6264
:1026B8002B492B4BDB6A23F020027B689B69134371
:1026C800CB62274A264BDB6A23F01003D3622449E6
:1026D800234BDA6B234B13407A68D269D200134339
:1026E800CB631F4A1E4BDB6A43F01003D3623B687F
:1026F800002B06D11A4A1A4BDB6A43F40023D36233
:102708000FE03B68012B06D1154A154BDB6A43F4F1
:102718008013D36205E0124A114BDB6A43F40013BD
:10272800D3620F4A0E4B1B6843F080631360FDF7BA
:1027380051FEB86008E0FDF74DFE0246BB68D31AAB
:10274800022B01D9032306E0054B1B6803F0006345
:10275800002BF0D0FB7B18461037BD4680BD00BF6C
:10276800004402580700FFFF80B584B000AF7860CE
:1027780039600023FB73534B9B6A03F00303032B5D
:1027880001D1012399E04F4A4E4B1B6823F0805337
:102798001360FDF71FFEB86008E0FDF71BFE024658
:1027A800BB68D31A022B01D9032386E0454B1B686B
:1027B80003F00053002BF0D14249424B9B6A23F0AF
:1027C8007C727B681B681B0513438B623D497B68E1
:1027D8005B68013BC3F308027B689B68013B5B02B3
:1027E8009BB21A437B68DB68013B1B0403F4FE03BE
:1027F8001A437B681B69013B1B0603F0FE43134326
:102808000B6430492F4BDB6A23F440627B685B69B9
:102818001343CB622B492B4BDB6A23F400727B6892
:102828009B691343CB62274A264BDB6A23F48073E8
:10283800D3622449234B5A6C234B13407A68D269DC
:10284800D20013434B641F4A1E4BDB6A43F4807368
:10285800D3623B68002B06D11A4A1A4BDB6A43F451
:102868008003D3620FE03B68012B06D1154A154B54
:10287800DB6A43F40003D36205E0124A114BDB6ABA
:1028880043F08073D3620F4A0E4B1B6843F08053AA
:102898001360FDF79FFDB86008E0FDF79BFD024659
:1028A800BB68D31A022B01D9032306E0054B1B682A
:1028B80003F00053002BF0D0FB7B18461037BD46C1
:1028C80080BD00BF004402580700FFFF80B584B0F8
:1028D80000AF78600023FB607B68002B01D10123E7
:1028E800E0E07B6800229A627B681B686F4A93422B
:1028F8000FD07B681B686E4A93420AD07B681B68BE
:102908006C4A934205D07B68DB680F2B01D9012301
:10291800C8E0786800F098FCB8607B681B68634A78
:1029280093420CD07B681B68614A934207D07B684E
:102938001B68604A934202D0BB68082B11D87B6899
:102948001B685A4A934209D07B681B68584A9342CD
:1029580004D07B681B68574A934204D1BB68102B8C
:1029680001D901239EE07B6893F88130DBB2002B0C
:1029780006D17B68002283F88020786801F0B6FAD7
:102988007B68022283F881207B681B687A6812685A
:10299800126822F001021A607B689B69B3F1806FAC
:1029A80010D17B685B68B3F5800F0BD17B689B6B9C
:1029B800002B07D17B681B687A681268126842F49A
:1029C80080521A607B681B687A68D1697A68926A53
:1029D8001143FA6811437A68D26B11437A68D26856
:1029E8000A439A607B681B687A68516B7A68526AF6
:1029F80011437A68926B11437A68926911437A6835
:102A0800126911437A68526911437A68126A11434C
:102A18007A68526811437A68D26C11437A6892686E
:102A280011437A68926C11437A68926D0A43DA60AE
:102A38007B685B68002B13D17B681B687A68126817
:102A4800926822F4C05242F400629A607B681B6864
:102A58007A681268926822F4C06242F480629A60CE
:102A68007B681B687A681268126D22F001021A6589
:102A78007B685B6803F48003002B0AD07B681B68C3
:102A88007A681268D26822F000417A68526D0A4367
:102A9800DA607B680022C3F884207B68012283F80F
:102AA8008120002318461037BD4680BD0030014004
:102AB80000380040003C004080B58CB002AFF860A0
:102AC800B9607A607B80002387F82330FB6893F82D
:102AD8008030012B01D10223D5E2FB68012283F863
:102AE8008020FDF777FCF8617B88FB847B88BB84BA
:102AF800FB6893F88130FB76FB685B687B61FB7E43
:102B0800012B14D07B69B3F5800F06D1FB689B6855
:102B1800002B02D1FB7E042B09D0022387F8233037
:102B2800FB68002283F8802097F82330ABE2BB686B
:102B3800002B05D07B68002B02D07B88002B09D1A5
:102B4800012387F82330FB68002283F8802097F858
:102B5800233098E2FB6893F88130DBB2042B03D072
:102B6800FB68052283F88120FB680022C3F88420D3
:102B7800FB687A685A66FB687A88A3F86A20FB685B
:102B88007A88A3F86820FB68BA68DA65FB687A88EF
:102B9800A3F86220FB687A88A3F86020FB6800220B
:102BA8001A67FB6800225A67FB681A68FB681B688B
:102BB8005968A04B0B4079880B435360FB681B682E
:102BC800FA681268126842F001021A60FB685B68D2
:102BD800B3F5800F07D1FB681B68FA6812681268A2
:102BE80042F400721A60FB68DB680F2B70D944E06E
:102BF800FB681B685B6903F00203022B1AD1FB8C8C
:102C0800002B17D0FB681B68FA68D26D12681A622D
:102C1800FB68DB6D1A1DFB68DA65FB68B3F8623088
:102C28009BB2013B9AB2FB68A3F86220FB68B3F839
:102C38006230FB84FB681B685A6948F2080313403A
:102C4800002B1AD0BB8C002B17D0FB685B6EFA6880
:102C58001268126B1A60FB685B6E1A1DFB685A6675
:102C6800FB68B3F86A309BB2013B9AB2FB68A3F8E1
:102C78006A20FB68B3F86A30BB84FB8C002BB7D1A1
:102C8800BB8C002BB4D1FDF7A5FB0246FB69D21A19
:102C98003B6B9A4203D33B6BB3F1FF3F03D13B6BD2
:102CA800002B40F0C981F86800F000FAFB680022A8
:102CB80083F88020FB68D3F8843043F48072FB6883
:102CC800C3F88420FB68012283F881200123DAE11C
:102CD800FB68DB68072B40F2A781ADE0FB681B6847
:102CE8005B6903F00203022B3BD1FB8C002B38D02D
:102CF800FB8C012B1CD9FB68DB6B002B18D0FB6805
:102D08001B68FA68D26D12681A62FB68DB6D1A1DBF
:102D1800FB68DA65FB68B3F862309BB2023B9AB293
:102D2800FB68A3F86220FB68B3F86230FB8418E004
:102D3800FB681B682033FA68D26D12881A80FB681A
:102D4800DB6D9A1CFB68DA65FB68B3F862309BB2EE
:102D5800013B9AB2FB68A3F86220FB68B3F86230C3
:102D6800FB84FB681B685B6903F46043002B3CD061
:102D7800BB8C002B39D0FB681B685B6903F40043EC
:102D8800002B18D0FB685B6EFA681268126B1A6029
:102D9800FB685B6E1A1DFB685A66FB68B3F86A30FD
:102DA8009BB2023B9AB2FB68A3F86A20FB68B3F8AF
:102DB8006A30BB8419E0FB685B6EFA6812683032CF
:102DC800128892B21A80FB685B6E9A1CFB685A667E
:102DD800FB68B3F86A309BB2013B9AB2FB68A3F870
:102DE8006A20FB68B3F86A30BB84FDF7F3FA024641
:102DF800FB69D21A3B6B9A4203D33B6BB3F1FF3F9B
:102E080002D13B6B002B17D1F86800F04FF9FB6833
:102E1800002283F88020FB68D3F8843043F4807262
:102E2800FB68C3F88420FB68012283F88120012312
:102E380029E100BF0000FFFFFB8C002B7FF44EAFA1
:102E4800BB8C002B7FF44AAFF6E0FB681B685B691C
:102E580003F00203022B5CD1FB8C002B59D0FB8CB6
:102E6800032B1CD9FB68DB6B402B18D9FB681B684C
:102E7800FA68D26D12681A62FB68DB6D1A1DFB686E
:102E8800DA65FB68B3F862309BB2043B9AB2FB6820
:102E9800A3F86220FB68B3F86230FB8439E0FB8C4E
:102EA800012B1DD9FB68DB6B002B19D0FB681B6855
:102EB8002033FA68D26D12881A80FB68DB6D9A1C81
:102EC800FB68DA65FB68B3F862309BB2023B9AB2E2
:102ED800FB68A3F86220FB68B3F86230FB8418E053
:102EE800FB681B682033FA68D26D12781A70FB6889
:102EF800DB6D5A1CFB68DA65FB68B3F862309BB27D
:102F0800013B9AB2FB68A3F86220FB68B3F8623011
:102F1800FB84FB681B685B6903F46043002B5FD08C
:102F2800BB8C002B5CD0FB681B685B6903F4004317
:102F3800002B18D0FB685B6EFA681268126B1A6077
:102F4800FB685B6E1A1DFB685A66FB68B3F86A304B
:102F58009BB2043B9AB2FB68A3F86A20FB68B3F8FB
:102F68006A30BB843CE0FB681B685B6903F4C043C0
:102F7800B3F5005F1AD9FB685B6EFA6812683032E5
:102F8800128892B21A80FB685B6E9A1CFB685A66BC
:102F9800FB68B3F86A309BB2023B9AB2FB68A3F8AD
:102FA8006A20FB68B3F86A30BB8419E0FB685B6E83
:102FB800FA68126830321278D2B21A70FB685B6E07
:102FC8005A1CFB685A66FB68B3F86A309BB2013B2F
:102FD8009AB2FB68A3F86A20FB68B3F86A30BB842E
:102FE800FDF7F8F90246FB69D21A3B6B9A4203D304
:102FF8003B6BB3F1FF3F02D13B6B002B14D1F86858
:1030080000F054F8FB68002283F88020FB68D3F8AE
:10301800843043F48072FB68C3F88420FB68012283
:1030280083F8812001232EE0FB8C002B7FF40DAF69
:10303800BB8C002B7FF409AF3B6B0093FB6900222C
:103048000821F86800F0D2F80346002B07D0FB6887
:10305800D3F8843043F02002FB68C3F88420F86872
:1030680000F024F8FB68002283F88020FB68012226
:1030780083F88120FB68D3F88430002B01D001232A
:1030880001E097F8233018462837BD4680BD00BFB9
:1030980080B483B000AF78607B6893F88130DBB28E
:1030A80018460C37BD465DF8047B704780B485B080
:1030B80000AF78607B681B685B69FB607B681B6896
:1030C8007A681268926942F008029A617B681B6804
:1030D8007A681268926942F010029A617B681B68EC
:1030E8007A681268126822F001021A607B681A680E
:1030F8007B681B6819693C4B0B4013617B681B6834
:103108007A681268926822F440429A607B6893F861
:103118008130DBB2042B14D0FB6803F02003002BB2
:103128000FD07B68D3F8843043F080027B68C3F803
:1031380084207B681B687A681268926942F02002D2
:103148009A617B6893F88130DBB2032B14D0FB685B
:1031580003F04003002B0FD07B68D3F8843043F092
:1031680004027B68C3F884207B681B687A6812684D
:10317800926942F040029A61FB6803F40073002BE5
:103188000FD07B68D3F8843043F001027B68C3F822
:1031980084207B681B687A681268926942F400721E
:1031A8009A61FB6803F48073002B0FD07B68D3F817
:1031B800843043F008027B68C3F884207B681B686E
:1031C8007A681268926942F480729A617B68002278
:1031D800A3F862207B680022A3F86A2000BF143796
:1031E800BD465DF8047B704790FCFFFF80B584B056
:1031F80000AFF860B9603B601346FB7110E0FDF763
:10320800E9F802463B68D21ABB699A4203D3BB6904
:10321800B3F1FF3F02D1BB69002B01D103230FE0BB
:10322800FB681B685A69BB681A40BB689A420CBFA6
:1032380001230023DBB21A46FB799A42DFD0002330
:1032480018461037BD4680BD80B485B000AF7860A1
:103258007B68DB6B5B090133FB607B68DB680133F0
:10326800BB60BB680733DB08BB60BB68FA6802FB5E
:1032780003F318461437BD465DF8047B704780B5E4
:1032880082B000AF78607B68002B01D101231DE07C
:103298007B6893F83D30DBB2002B06D17B680022B7
:1032A80083F83C20786800F0F7FF7B68022283F8F7
:1032B8003D207B681A687B6804331946104600F085
:1032C8004BFA7B68012283F83D2000231846083713
:1032D800BD4680BD80B485B000AF78607B681B6850
:1032E8007A681268D26842F00102DA607B681B686B
:1032F8009A680C4B1340FB60FB68062B0BD0FB68ED
:10330800B3F5803F07D07B681B687A68126812683B
:1033180042F001021A60002318461437BD465DF8D2
:10332800047B70470700010080B582B000AF786069
:103338007B681B681B6903F00203022B22D17B68A0
:103348001B68DB6803F00203022B1BD17B681B6838
:103358006FF002021A617B6801221A777B681B688A
:103368009B6903F00303002B03D0786800F0D6F9BB
:1033780005E0786800F0C8F9786800F0D9F97B684A
:1033880000221A777B681B681B6903F00403042B6F
:1033980022D17B681B68DB6803F00403042B1BD174
:1033A8007B681B686FF004021A617B6802221A7737
:1033B8007B681B689B6903F44073002B03D0786813
:1033C80000F0ACF905E0786800F09EF9786800F044
:1033D800AFF97B6800221A777B681B681B6903F0CA
:1033E8000803082B22D17B681B68DB6803F00803FD
:1033F800082B1BD17B681B686FF008021A617B6879
:1034080004221A777B681B68DB6903F00303002B2F
:1034180003D0786800F082F905E0786800F074F964
:10342800786800F085F97B6800221A777B681B684A
:103438001B6903F01003102B22D17B681B68DB6823
:1034480003F01003102B1BD17B681B686FF0100270
:103458001A617B6808221A777B681B68DB6903F4AA
:103468004073002B03D0786800F058F905E07868BD
:1034780000F04AF9786800F05BF97B6800221A7757
:103488007B681B681B6903F00103012B0ED17B6865
:103498001B68DB6803F00103012B07D17B681B68FD
:1034A8006FF001021A61786800F0BCFB7B681B684A
:1034B8001B6903F08003802B0ED17B681B68DB68D7
:1034C80003F08003802B07D17B681B686FF08002B4
:1034D8001A61786800F0DEFA7B681B681B6903F4E0
:1034E8008073B3F5807F0ED17B681B68DB6803F0BF
:1034F8008003802B07D17B681B686FF480721A6188
:10350800786800F0D1FA7B681B681B6903F04003F8
:10351800402B0ED17B681B68DB6803F04003402B0F
:1035280007D17B681B686FF040021A61786800F069
:1035380009F97B681B681B6903F02003202B0ED157
:103548007B681B68DB6803F02003202B07D17B68AE
:103558001B686FF020021A61786800F091FA00BFCA
:103568000837BD4680BD000080B584B000AF7860E4
:1035780039607B6893F83C30012B01D10223B7E016
:103588007B68012283F83C207B68022283F83D2077
:103598007B681B689B68FB60FA68574B1340FB60AD
:1035A800FB6823F47F43FB607B681B68FA689A60BA
:1035B8003B681B68702B2ED0702B12D8302B00F074
:1035C8008480302B06D8102B7FD0202B7DD0002B69
:1035D8007BD084E0502B48D0602B56D0402B64D051
:1035E8007DE0B3F1101F70D0B3F1101F09D8B3F507
:1035F800005F27D0B3F5801F67D0B3F5805F6DD02B
:103608006DE03E4A934260D03D4A93425DD03D4AC8
:1036180093425AD063E07B6818683B6899683B68B6
:103628005A683B68DB6800F0AFF97B681B689B68E9
:10363800FB60FB6843F07703FB607B681B68FA68F4
:103648009A604CE07B6818683B6899683B685A68E0
:103658003B68DB6800F098F97B681B687A68126839
:10366800926842F480429A6039E07B6818683B6847
:1036780059683B68DB681A4600F008F97B681B68E4
:103688005021184600F062F929E07B6818683B6809
:1036980059683B68DB681A4600F027F97B681B68A5
:1036A8006021184600F052F919E07B6818683B68F9
:1036B80059683B68DB681A4600F0E8F87B681B68C5
:1036C8004021184600F042F909E07B681A683B6817
:1036D8001B681946104600F039F900E000BF7B6806
:1036E800012283F83D207B68002283F83C200023D8
:1036F80018461037BD4680BD88FFCEFF3000100049
:10370800400010002000100080B483B000AF786043
:1037180000BF0C37BD465DF8047B704780B483B0AA
:1037280000AF786000BF0C37BD465DF8047B70477A
:1037380080B483B000AF786000BF0C37BD465DF839
:10374800047B704780B483B000AF786000BF0C374B
:10375800BD465DF8047B704780B485B000AF7860E3
:1037680039607B681B68FB607B68404A934213D0D2
:103778007B68B3F1804F0FD07B683D4A93420BD0F2
:103788007B683C4A934207D07B683B4A934203D00C
:103798007B683A4A934208D1FB6823F07003FB60C8
:1037A8003B685B68FA681343FB607B682F4A934267
:1037B8001FD07B68B3F1804F1BD07B682C4A9342A3
:1037C80017D07B682B4A934213D07B682A4A9342CE
:1037D8000FD07B68294A93420BD07B68284A9342D2
:1037E80007D07B68274A934203D07B68264A9342D6
:1037F80008D1FB6823F44073FB603B68DB68FA6818
:103808001343FB60FB6823F080023B685B6913434A
:10381800FB607B68FA681A603B689A687B68DA62C2
:103828003B681A687B689A627B68104A93420FD09B
:103838007B68124A93420BD07B68114A934207D0A7
:103848007B68104A934203D07B680F4A934203D1A6
:103858003B681A697B681A637B6801225A6100BF5A
:103868001437BD465DF8047B704700BF0000014077
:103878000004004000080040000C00400004014023
:1038880000400140004401400048014080B487B036
:1038980000AFF860B9607A60FB681B6A7B61FB68FF
:1038A8001B6A23F00102FB681A62FB689B693B6193
:1038B8003B6923F0F0033B617B681B013A691343C2
:1038C8003B617B6923F00A037B617A69BB68134318
:1038D8007B61FB683A699A61FB687A691A6200BF82
:1038E8001C37BD465DF8047B704780B487B000AFD5
:1038F800F860B9607A60FB681B6A23F01002FB6805
:103908001A62FB689B697B61FB681B6A3B617B6988
:1039180023F470437B617B681B037A6913437B61E3
:103928003B6923F0A0033B61BB681B013A69134361
:103938003B61FB687A699A61FB683A691A6200BF61
:103948001C37BD465DF8047B7047000080B485B025
:1039580000AF786039607B689B68FB60FA68094B48
:103968001340FB603A68FB68134343F00703FB60AE
:103978007B68FA689A6000BF1437BD465DF8047B1F
:10398800704700BF8FFFCFFF80B487B000AFF860EB
:10399800B9607A603B60FB689B687B617B6923F454
:1039A8007F437B613B681A027B681A43BB681343F9
:1039B8007A6913437B61FB687A699A6000BF1C3798
:1039C800BD465DF8047B704780B485B000AF786071
:1039D80039607B6893F83C30012B01D1022345E024
:1039E8007B68012283F83C207B68022283F83D2013
:1039F8007B681B685B68FB607B681B689B68BB60B7
:103A08007B681B681C4A934204D07B681B681B4A6E
:103A1800934208D1FB6823F47003FB603B685B6842
:103A2800FA681343FB60FB6823F07003FB603B6894
:103A38001B68FA681343FB60BB6823F08003BB6014
:103A48003B689B68BA681343BB607B681B68FA686D
:103A58005A607B681B68BA689A607B68012283F8A1
:103A68003D207B68002283F83C2000231846143749
:103A7800BD465DF8047B704700000140000401402A
:103A880080B483B000AF786000BF0C37BD465DF8E6
:103A9800047B704780B483B000AF786000BF0C37F8
:103AA800BD465DF8047B704780B483B000AF786092
:103AB80000BF0C37BD465DF8047B704780B58AB0FF
:103AC80000AF07F1140300221A605A609A60DA60A6
:103AD8001A61454A444BD3F8E03043F08003C2F8FA
:103AE800E030414BD3F8E03003F080033B613B69A1
:103AF8003D4A3D4BD3F8E03043F00103C2F8E030D3
:103B0800394BD3F8E03003F00103FB60FB68364A19
:103B1800354BD3F8E03043F00203C2F8E030324BC3
:103B2800D3F8E03003F00203BB60BB682E4A2E4B8B
:103B3800D3F8E03043F00803C2F8E0302A4BD3F85A
:103B4800E03003F008037B607B68002244F28101C7
:103B58002648FCF715FF01224FF480412448FCF762
:103B68000FFF08237B61234BBB610023FB6107F137
:103B7800140319462048FCF753FD80237B61032377
:103B8800BB610023FB6107F1140319461A48FCF7CF
:103B980047FD44F281037B610123BB610023FB6184
:103BA80000233B6207F1140319461048FCF738FD5F
:103BB8004FF480437B610123BB610023FB61002339
:103BC8003B6207F1140319460948FCF729FD002256
:103BD80000210920FCF7EFFC0920FCF706FD00BFD7
:103BE8002837BD4680BD00BF004402580004025873
:103BF800000C0258000011110000025880B483B074
:103C080000AF0346FB80FB88082B02D1044B01223E
:103C18001A7000BF0C37BD465DF8047B704700BFC3
:103C28007800002080B483B000AF78607B681B68A0
:103C3800084A934208D1084B1B780133DAB2064B85
:103C48001A70064B01221A7000BF0C37BD465DF88A
:103C5800047B70470000014036000020300000203F
:103C680080B500AFFCF734FB00F030F8FFF726FF13
:103C780000F0BEFA1148FFF72DFB00F0DFF843F61D
:103C8800FF7000F09DF90E4B1B78012B0ED10C4BE9
:103C980000221A7001210B48FCF78BFE4FF480417B
:103CA8000848FCF786FE084B01221A70064B1B7861
:103CB800012BE8D1044B00221A70E4E738000020F9
:103CC80030000020000402587800002080B5CCB0F5
:103CD80000AF07F1E4034C220021184600F052FB24
:103CE80007F1C40320220021184600F04BFB07F11E
:103CF80008031846BC231A46002100F043FB0220A3
:103D0800FCF78AFE3B1D00221A60464A454B9B6918
:103D180043F440439361434B9B6903F440423B1D8A
:103D28001A60414A404BDB6A43F00103D3623E4BC1
:103D3800DB6A03F001023B1D1A603B1D1B6800BFD4
:103D4800384B9B6903F40053B3F5005FF8D10123A6
:103D5800C7F8E4304FF48033C7F8E8300223C7F8D7
:103D680008310223C7F80C310123C7F81031782332
:103D7800C7F814310223C7F818310223C7F81C31D9
:103D88000223C7F820310C23C7F824310023C7F8D1
:103D980028310023C7F82C3107F1E4031846FCF753
:103DA80073FE0346002B01D000F040F83F23C7F80C
:103DB800C4300323C7F8C8300023C7F8CC30082321
:103DC800C7F8D0304023C7F8D4304023C7F8D830DC
:103DD8004FF48063C7F8DC304023C7F8E03007F1C0
:103DE800C40304211846FDF707FA0346002B01D047
:103DF80000F01CF807F108034FF480521A6007F12D
:103E080008030022DA6507F108031846FDF70AFDE2
:103E18000346002B01D000F009F800BF07F598779A
:103E2800BD4680BD004802580004005880B400AF69
:103E380000BFBD465DF8047B7047000080B500AF49
:103E4800284B294A1A60274B4FF480025A60254BA9
:103E580000229A60234B0F22DA60224B00221A615B
:103E6800204B4FF080725A611E4B4FF080629A616E
:103E78001C4B4FF0A042DA611A4B00221A62194B10
:103E880000225A62174B00229A62164B0022DA620D
:103E9800144B4FF080425A63124B00229A63114B25
:103EA8000022DA630F4B00221A640E4B00225A6478
:103EB8000C4B00229A640B4B0022DA64094B002257
:103EC8001A65084B00225A65064B00229A65054878
:103ED800FEF7FCFC0346002B01D0FFF7A7FF00BF4D
:103EE80080BD00BF7C0000200030014080B58AB052
:103EF80000AF786007F1140300221A605A609A60D4
:103F0800DA601A617B681B68294A93424CD1294AB6
:103F1800284BD3F8F03043F48053C2F8F030254BE7
:103F2800D3F8F03003F480533B613B69214A214BBD
:103F3800D3F8E03043F00103C2F8E0301D4BD3F86A
:103F4800E03003F00103FB60FB681A4A194BD3F811
:103F5800E03043F00803C2F8E030164BD3F8E03005
:103F680003F00803BB60BB6860237B610223BB616D
:103F78000023FB6100233B6205237B6207F11403E6
:103F880019460D48FCF74CFB80237B610223BB617B
:103F98000023FB6100233B6205237B6207F11403C6
:103FA80019460648FCF73CFB00BF2837BD4680BDD4
:103FB800003001400044025800000258000C02582A
:103FC80080B586B002AF0346FB80FB885B001AB25F
:103FD800254B13431BB29BB2FB8100BF2348FFF75D
:103FE80057F80346052BF9D000224FF480412048AA
:103FF800FCF7C6FC07F10C0207F10E01322300930F
:1040080001231A48FEF758FD01224FF48041184851
:10401800FCF7B6FCFB885B001AB2164B13431BB2C5
:104028009BB27B8100BF1148FFF732F80346052B8E
:10403800F9D000224FF480410D48FCF7A1FC07F1AC
:104048000C0207F10A013223009301230748FEF707
:1040580033FD01224FF480410548FCF791FCBB89F0
:1040680018461037BD4680BD0180FFFF7C00002048
:10407800000C02580080FFFF80B483B000AF0A4AEA
:10408800094BD3F8F43043F00203C2F8F430064B7E
:10409800D3F8F43003F002037B607B6800BF0C3771
:1040A800BD465DF8047B70470044025880B400AFF9
:1040B80000BFBD465DF8047B704780B400AFFEE7E3
:1040C80080B400AFFEE780B400AFFEE780B400AF75
:1040D800FEE780B400AF00BFBD465DF8047B7047C3
:1040E80080B400AF00BFBD465DF8047B704780B464
:1040F80000AF00BFBD465DF8047B704780B500AFD8
:10410800FCF754F900BF80BD80B500AF0820FCF76C
:104118006BFC00BF80BD000080B500AF0248FFF710
:1041280003F900BF80BD00BF3800002080B400AF95
:10413800294A294BD3F8883043F47003C2F88830F1
:10414800264A264B1B6843F001031360234B0022C9
:104158001A612249214B1A68214B13400B601F4BEF
:1041680000229A611D4B0022DA611C4B00221A6260
:104178001A4B00229A62194B0022DA62174B00226E
:104188001A63164B00225A63144B00229A63134B8E
:104198000022DA63114B00221A64104B00225A6481
:1041A8000E4A0E4B1B6823F4802313600B4B00222E
:1041B8001A660C4B1A680C4B1340B3F1005F02D21D
:1041C8000A4B01221A60044B4FF000629A6000BF4C
:1041D800BD465DF8047B704700ED00E000440258DE
:1041E8007FEDF6EA0010005C0000FFFF0881005137
:1041F80080B588B000AF07F1100300221A605A603A
:104208009A60DA603B1D00221A605A609A60204B5F
:10421800204A1A601E4B40F6B7325A601C4B0022E7
:104228009A601B4B42F20F72DA60194B00221A6136
:10423800174B00225A61164B00229A611448FFF767
:104248001EF80346002B01D0FFF7F0FD4FF4805312
:104258003B6107F1100319460D48FFF785F903463E
:10426800002B01D0FFF7E2FD00237B600023BB6039
:104278000023FB603B1D19460548FFF7A5FB0346D5
:10428800002B01D0FFF7D2FD00BF2037BD4680BD0F
:10429800380000200000014080B584B000AF78608D
:1042A8007B681B680E4A934216D10E4A0D4BD3F811
:1042B800F03043F00103C2F8F0300A4BD3F8F03085
:1042C80003F00103FB60FB68002200211920FCF7C2
:1042D80072F91920FCF789F900BF1037BD4680BD77
:1042E8000000014000440258DFF834D0002103E008
:1042F8000C4B5B58435004310B480C4B42189A4204
:10430800F6D30B4A02E0002342F8043B094B9A42D9
:10431800F9D3FFF70BFF00F011F8FFF7A1FC704786
:1043280000000220CC4300080000002010000020FC
:104338001000002004010020FEE7000070B50D4EBB
:104348000D4CA41BA4100025A54209D10B4E0C4C02
:1043580000F020F8A41BA4100025A54205D170BDCB
:1043680056F8253098470135EEE756F82530984736
:104378000135F2E7C4430008C4430008C4430008F9
:10438800C843000802440346934200D1704703F82B
:10439800011BF9E7F8B500BFF8BC08BC9E4670479A
:0C43A800F8B500BFF8BC08BC9E4670478A
:1043B40000000000010203040102030406070809C7
:0443C400BD0200082E
:0443C800990200084E
:1043CC0010000000010000000090D0030090D0030A
:04000005080042F1BC
:00000001FF
